:020000040800F2
:10000000000003205D040008A9040008A9040008FA
:10001000A9040008A9040008A904000800000000C1
:10002000000000000000000000000000A90400081B
:10003000A904000800000000A9040008A9040008A1
:10004000A9040008A9040008A9040008A9040008DC
:10005000A9040008A9040008A9040008A9040008CC
:10006000A9040008A9040008A9040008A9040008BC
:10007000A9040008A9040008A9040008A9040008AC
:10008000A9040008A9040008A9040008A90400089C
:10009000A9040008A9040008A9040008A90400088C
:1000A000A9040008A9040008A9040008A90400087C
:1000B000A9040008A9040008A9040008A90400086C
:1000C000A9040008A9040008A9040008A90400085C
:1000D000A9040008A9040008A9040008A90400084C
:1000E000A9040008A9040008A9040008A90400083C
:1000F000A9040008A9040008A9040008A90400082C
:10010000A9040008A9040008A9040008A90400081B
:10011000A9040008A9040008A9040008A90400080B
:10012000A9040008A9040008A9040008A9040008FB
:10013000A9040008A9040008A9040008A9040008EB
:10014000A9040008A9040008A9040008A9040008DB
:10015000A9040008A9040008A9040008A9040008CB
:10016000A9040008A9040008A9040008A9040008BB
:10017000A9040008A9040008A90400080000000060
:10018000A9040008A9040008A9040008A90400089B
:10019000A9040008A9040008A9040008A90400088B
:0C01A000A9040008A9040008A904000834
:1001AC000348044B834202D0034B03B118477047FA
:1001BC000000002000000020000000000548064B55
:1001CC001B1AD90F01EBA301491002D0034B03B149
:1001DC0018477047000000200000002000000000BD
:1001EC0010B5064C237843B9FFF7DAFF044B13B173
:1001FC000448AFF300800123237010BD00000020E1
:10020C0000000000F404000808B5054B1BB10549BB
:10021C000548AFF30080BDE80840FFF7CFBF00BF33
:10022C000000000004000020F40400080D4B0E4AEE
:10023C00C3F818240D4B1B781BB10A4B0122C3F8D1
:10024C0018240A4B5B781BB1064B8022C3F8182488
:10025C00064B9B7823B1034B4FF48042C3F8182410
:10026C00704700BF000002400000814020000020C9
:10027C0082B00190019B5A1E0192002BFAD102B060
:10028C007047000010B500F055F800F0BFF830E0F2
:10029C000133022B06DC214AD25C002AF8D11F4A1A
:1002AC000121D154FFF7C2FF0FE00023F1E7013B1E
:1002BC00002BF7DB194AD25C012AF8D1174A00212E
:1002CC00D154EFE7164B00221A7064B9154B1B780A
:1002DC0063B9144B01221A70134A1378B3FA83F3DF
:1002EC005B09137002E00F4B00221A700F48FFF7E6
:1002FC00BFFF0F4BD3F8103803F0400413F4005F2A
:10030C00E0D1074B1B78002BDFD1054B01221A7073
:10031C00054B1B78002BC8D00223C9E72000002016
:10032C001D0000201C0000201E000020A0860100E3
:10033C000000024030B4334AD2F8303843F00603A0
:10034C00C2F83038304BD3F8001421F00301C3F855
:10035C00001441F00101C3F80014D3F8044424F054
:10036C000102C3F80424D3F8082422F00302C3F8D2
:10037C00082442F00102C3F80824D3F80C0420F03E
:10038C000300C3F80C044FF48035C3F8185421F45F
:10039C004041C3F8001441F48041C3F8001424F028
:1003AC008104C3F8044422F44042C3F8082442F404
:1003BC008042C3F8082420F44040C3F80C044FF4E6
:1003CC000005C3F8185421F04051C3F8001441F053
:1003DC008051C3F8001424F48044C3F8044422F080
:1003EC004052C3F8082442F08052C3F8082420F08D
:1003FC004050C3F80C044FF08042C3F8182430BCB2
:10040C00704700BF00300240000002400F4AD2F893
:10041C00003823F04063C2F8003823F44053C2F88C
:10042C000038D2F80C3823F04063C2F80C3843F093
:10043C008061C2F80C1823F4405343F08063C2F877
:10044C000C3843F48053C2F80C387047000002405B
:10045C00DFF830D00C480D490D4A002302E0D45887
:10046C00C4500433C4188C42F9D30A4A0A4C0023F2
:10047C0001E013600432A242FBD300F011F8FFF745
:10048C0001FF704700000320000000200000002046
:10049C00140500080000002024000020FEE70000E6
:1004AC0070B50D4D0D4C641BA4100026A64209D14D
:1004BC000B4D0C4C00F018F8641BA4100026A6423F
:1004CC0005D170BD55F8043B98470136EEE755F859
:1004DC00043B98470136F2E70C0500080C050008B0
:1004EC000C05000810050008F8B500BFF8BC08BCE6
:1004FC009E467047F8B500BFF8BC08BC9E467047D6
:04050C0015020008CC
:04051000ED010008F1
:040000050800045D8E
:00000001FF
