:020000040800F2
:1000000000000320090700085507000855070008ED
:1000100055070008550700085507000800000000B4
:10002000000000000000000000000000550700086C
:100030005507000800000000550700085507000894
:100040005507000855070008550700085507000820
:100050005507000855070008550700085507000810
:100060005507000855070008550700085507000800
:1000700055070008550700085507000855070008F0
:1000800055070008550700085507000855070008E0
:1000900055070008550700085507000855070008D0
:1000A00055070008550700085507000855070008C0
:1000B00055070008550700085507000855070008B0
:1000C00055070008550700085507000855070008A0
:1000D0005507000855070008550700085507000890
:1000E0005507000855070008550700085507000880
:1000F0005507000855070008550700085507000870
:10010000550700085507000855070008550700085F
:10011000550700085507000855070008550700084F
:10012000550700085507000855070008550700083F
:10013000550700085507000855070008550700082F
:10014000550700085507000855070008550700081F
:10015000550700085507000855070008550700080F
:1001600055070008550700085507000855070008FF
:100170005507000855070008550700080000000053
:1001800055070008550700085507000855070008DF
:1001900055070008550700085507000855070008CF
:0C01A00055070008550700085507000827
:1001AC0010B5054C237833B9044B13B10448AFF3A5
:1001BC0000800123237010BD04000020000000000B
:1001CC00A007000808B5034B1BB103490348AFF364
:1001DC00008008BD0000000008000020A0070008F7
:1001EC000D4BD3F8103803420DD10C4B5B5C042B38
:1001FC0002D80133094A5354084B585C042894BF65
:10020C00002001207047054B5B5C002BF4D0013BB8
:10021C00024A5354F0E700BF0000024024000020C3
:10022C000F4B1B783BB90F4B00221A7001225A70EE
:10023C0002229A707047012B02D0022B08D0704713
:10024C00084B02221A7000225A7001229A707047D1
:10025C00044B01221A7002225A7000229A70EEE7A7
:10026C002000002000000020284B1B7853B3284BA3
:10027C000122C3F81824254B5B784BB3244B022284
:10028C00C3F81824214B9B7843B3214B8022C3F82D
:10029C0018241E4BDB783BB31D4B4FF48072C3F814
:1002AC0018241A4B1B792BB3194B4FF48042C3F80B
:1002BC001824164B5B791BB3154B4FF40042C3F853
:1002CC0018247047124B4FF48032C3F81824D2E72D
:1002DC000F4B4FF40032C3F81824D3E70C4B4FF4F8
:1002EC000002C3F81824D4E7094B4FF08072C3F80E
:1002FC001824D6E7064B4FF08042C3F81824D8E7F1
:10030C00034B4FF00042C3F8182470472C00002018
:10031C00000002400021814211D282B00AE0019B10
:10032C0001330193019A42F20F739A42F7D90131CA
:10033C00814202D200230193F4E702B07047704768
:10034C0008B500F0F5F800F0B1F946E0734B002267
:10035C00DA7000214FF40070FFF742FF002865D0DF
:10036C006E4B1B785BB96D4B01221A706C4B1B7872
:10037C00002B4DD16B4B1A705A70FFF775FF012192
:10038C004020FFF72DFF00287CD0644B5B785BB9D5
:10039C00624B01225A70624B5B78002B64D1614B2B
:1003AC001A705A70FFF760FF02218020FFF718FFC8
:1003BC00002800F09380594B9B785BB9574B012276
:1003CC009A70574B9B78002B7AD1564B1A705A70F7
:1003DC00FFF74AFF0A20FFF79DFF03214FF48070BF
:1003EC00FFF7FEFE0028B1D04C4BDB78002BB0D1D0
:1003FC004A4B0122DA704C490A7801324B4B83FB91
:10040C00020303EB4303D31A0B70FFF709FFA0E7BA
:10041C00012B06D0022BB0D1424B01221A715A711A
:10042C00ABE7404B01229A70DA70A6E73B4B1B7886
:10043C00002BA4D0394B00221A70394B1B782BB9E6
:10044C00384B1A705A70FFF70FFF98E7012B06D044
:10045C00022BF8D1334B00221A715A71F3E7314B4E
:10046C0000229A70DA70EEE7012B06D0022B99D19C
:10047C002C4B01221A715A7194E72A4B01229A7063
:10048C00DA708FE7254B5B78002B8DD0234B002245
:10049C005A70234B5B782BB9224B1A705A70FFF7AA
:1004AC00E3FE81E7012B06D0022BF8D11D4B002275
:1004BC001A715A71F3E71B4B00229A70DA70EEE74F
:1004CC00012B06D0022B83D1164B01221A715A71C3
:1004DC007EE7144B01229A70DA7079E70F4B9B7808
:1004EC00002B3FF477AF0D4B00229A700C4B9B788E
:1004FC002BB90C4B1A705A70FFF7B6FE6AE7012B3A
:10050C0006D0022BF8D1074B00221A715A71F3E76F
:10051C00044B00229A70DA70EEE700BF280000202E
:10052C00000000202C0000202000002056555555BE
:10053C0030B45C4AD2F8303843F00603C2F8303895
:10054C00594BD3F8001421F00301C3F8001441F007
:10055C000101C3F80014D3F8040420F00102C3F81D
:10056C000424D3F8082422F00302C3F8082442F030
:10057C000102C3F80824D3F80C4424F00305C3F893
:10058C000C544FF48035C3F8185421F00C01C3F807
:10059C00001441F00401C3F8001420F00305C3F863
:1005AC00045422F00C02C3F8082442F00402C3F8ED
:1005BC00082424F00F04C3F80C444FF40035C3F89E
:1005CC00185421F44041C3F8001441F48041C3F89D
:1005DC00001420F08300C3F8040422F44042C3F852
:1005EC00082442F48042C3F8082424F44045C3F89C
:1005FC000C544FF40005C3F8185421F44031C3F8DF
:10060C00001441F48031C3F8001420F48075C3F851
:10061C00045422F44032C3F8082442F48032C3F864
:10062C00082424F47034C3F80C444FF08075C3F8DC
:10063C00185421F04051C3F8001441F08051C3F814
:10064C00001420F48245C3F8045422F04052C3F83D
:10065C00082442F08052C3F8082424F04055C3F813
:10066C000C544FF08045C3F8185421F04041C3F8A6
:10067C0000142943C3F8001420F44140C3F80404C7
:10068C0022F04042C3F808242A43C3F8082424F07B
:10069C007044C3F80C444FF00042C3F8182430BC2B
:1006AC00704700BF0030024000000240124BD3F8EC
:1006BC00002822F44021C3F8001822F44321C3F887
:1006CC00001822F44F21C3F8001822F47F22C3F83B
:1006DC000028D3F80C2822F44021C3F80C1822F47B
:1006EC004321C3F80C1822F44F21C3F80C1822F440
:1006FC007F22C3F80C28704700000240DFF830D08E
:10070C000C480D490D4A002302E0D458C450043360
:10071C00C4188C42F9D30A4A0A4C002301E0136036
:10072C000432A242FBD300F011F8FFF709FE704728
:10073C00000003200000002004000020C007000877
:10074C000400002034000020FEE7000070B50D4DC1
:10075C000D4C641BA4100026A64209D10B4D0C4C69
:10076C0000F018F8641BA4100026A64205D170BD39
:10077C0055F8043B98470136EEE755F8043B98478B
:10078C000136F2E7B8070008B8070008B8070008F8
:10079C00BC070008F8B500BFF8BC08BC9E46704703
:0C07AC00F8B500BFF8BC08BC9E467047C2
:0407B800D101000863
:0407BC00AD01000883
:0407C0000001020032
:0400000508000709DF
:00000001FF
