:020000040800F2
:100000000000032075040008C1040008C1040008B2
:10001000C1040008C1040008C10400080000000079
:10002000000000000000000000000000C104000803
:10003000C104000800000000C1040008C104000859
:10004000C1040008C1040008C1040008C10400087C
:10005000C1040008C1040008C1040008C10400086C
:10006000C1040008C1040008C1040008C10400085C
:10007000C1040008C1040008C1040008C10400084C
:10008000C1040008C1040008C1040008C10400083C
:10009000C1040008C1040008C1040008C10400082C
:1000A000C1040008C1040008C1040008C10400081C
:1000B000C1040008C1040008C1040008C10400080C
:1000C000C1040008C1040008C1040008C1040008FC
:1000D000C1040008C1040008C1040008C1040008EC
:1000E000C1040008C1040008C1040008C1040008DC
:1000F000C1040008C1040008C1040008C1040008CC
:10010000C1040008C1040008C1040008C1040008BB
:10011000C1040008C1040008C1040008C1040008AB
:10012000C1040008C1040008C1040008C10400089B
:10013000C1040008C1040008C1040008C10400088B
:10014000C1040008C1040008C1040008C10400087B
:10015000C1040008C1040008C1040008C10400086B
:10016000C1040008C1040008C1040008C10400085B
:10017000C1040008C1040008C10400080000000018
:10018000C1040008C1040008C1040008C10400083B
:10019000C1040008C1040008C1040008C10400082B
:0C01A000C1040008C1040008C1040008EC
:1001AC000348044B834202D0034B03B118477047FA
:1001BC000000002000000020000000000548064B55
:1001CC001B1AD90F01EBA301491002D0034B03B149
:1001DC0018477047000000200000002000000000BD
:1001EC0010B5064C237843B9FFF7DAFF044B13B173
:1001FC000448AFF300800123237010BD00000020E1
:10020C00000000000C05000808B5054B1BB10549A2
:10021C000548AFF30080BDE80840FFF7CFBF00BF33
:10022C0000000000040000200C0500080D4B0E4AD5
:10023C00C3F818240D4B1B781BB10A4B0122C3F8D1
:10024C0018240A4B5B781BB1064B8022C3F8182488
:10025C00064B9B7823B1034B4FF48042C3F8182410
:10026C00704700BF000002400000814020000020C9
:10027C0082B00190019B5A1E0192002BFAD102B060
:10028C007047000010B500F06BF800F0D5F82D4B5E
:10029C001B781BB92C4B00221A703EE02A4B012212
:1002AC001A703AE0013B002B07DB284AD15C254A47
:1002BC0012789142F6D02549CA54FFF7B7FF10E0E7
:1002CC000223F0E70133022BF7DC204AD15C1D4AF4
:1002DC0012789142F6D01D49CA54EEE71C4B00220D
:1002EC001A70A4B91B4B1B78A3B91A4B01221A70B4
:1002FC00144A1378B3FA83F35B0913701BB9124BCE
:10030C0000221A7006E0104B01221A7002E0114B09
:10031C0000221A701048FFF7ABFF104BD3F81038BF
:10032C0003F0400413F4005FD8D1094B1B78002B69
:10033C00D7D1074B01221A70034B1B78002BBFD06F
:10034C000023C0E71F0000201E000020200000201A
:10035C001D0000201C000020A086010000000240AF
:10036C0030B4334AD2F8303843F00603C2F8303890
:10037C00304BD3F8001421F00301C3F8001441F002
:10038C000101C3F80014D3F8044424F00102C3F8AB
:10039C000424D3F8082422F00302C3F8082442F002
:1003AC000102C3F80824D3F80C0420F00300C3F8AE
:1003BC000C044FF48035C3F8185421F44041C3F8B1
:1003CC00001441F48041C3F8001424F08104C3F8F4
:1003DC00044422F44042C3F8082442F48042C3F897
:1003EC00082420F44040C3F80C044FF40005C3F873
:1003FC00185421F04051C3F8001441F08051C3F857
:10040C00001424F48044C3F8044422F04052C3F88E
:10041C00082442F08052C3F8082420F04050C3F85E
:10042C000C044FF08042C3F8182430BC704700BF56
:10043C0000300240000002400A4BD3F8002822F0A2
:10044C004062C3F8002822F44052C3F80028D3F8C5
:10045C000C2822F04062C3F80C2822F44052C3F856
:10046C000C28704700000240DFF830D00C480D49D2
:10047C000D4A002302E0D458C4500433C4188C42F3
:10048C00F9D30A4A0A4C002301E013600432A24259
:10049C00FBD300F011F8FFF7F5FE704700000320C6
:1004AC0000000020000000202C05000800000020A7
:1004BC0024000020FEE7000070B50D4D0D4C641BB0
:1004CC00A4100026A64209D10B4D0C4C00F018F8D4
:1004DC00641BA4100026A64205D170BD55F8043B40
:1004EC0098470136EEE755F8043B98470136F2E79A
:1004FC002405000824050008240500082805000828
:10050C00F8B500BFF8BC08BC9E467047F8B500BFF4
:08051C00F8BC08BC9E467047C4
:0405240015020008B4
:04052800ED010008D9
:040000050800047576
:00000001FF
